{
  "contractName": "SalaryMan",
  "abi": [
    {
      "constant": false,
      "inputs": [
        {
          "name": "empID",
          "type": "uint256"
        }
      ],
      "name": "getEmployee",
      "outputs": [
        {
          "components": [
            {
              "name": "addr",
              "type": "address"
            },
            {
              "name": "totalAmount",
              "type": "uint256"
            }
          ],
          "name": "person",
          "type": "tuple"
        }
      ],
      "payable": false,
      "stateMutability": "nonpayable",
      "type": "function"
    },
    {
      "constant": true,
      "inputs": [],
      "name": "getNumEmployees",
      "outputs": [
        {
          "name": "",
          "type": "uint256"
        }
      ],
      "payable": false,
      "stateMutability": "view",
      "type": "function"
    },
    {
      "constant": false,
      "inputs": [
        {
          "name": "adr",
          "type": "address"
        }
      ],
      "name": "newEmployee",
      "outputs": [
        {
          "name": "employeeID",
          "type": "uint256"
        }
      ],
      "payable": false,
      "stateMutability": "nonpayable",
      "type": "function"
    },
    {
      "constant": false,
      "inputs": [],
      "name": "depositFunds",
      "outputs": [
        {
          "name": "success",
          "type": "bool"
        }
      ],
      "payable": true,
      "stateMutability": "payable",
      "type": "function"
    },
    {
      "payable": true,
      "stateMutability": "payable",
      "type": "fallback"
    },
    {
      "anonymous": false,
      "inputs": [
        {
          "indexed": false,
          "name": "value",
          "type": "uint256"
        }
      ],
      "name": "PaymentReceived",
      "type": "event"
    },
    {
      "anonymous": false,
      "inputs": [
        {
          "indexed": false,
          "name": "sender",
          "type": "address"
        },
        {
          "indexed": false,
          "name": "amount",
          "type": "uint256"
        },
        {
          "indexed": false,
          "name": "balance",
          "type": "uint256"
        }
      ],
      "name": "LogDep",
      "type": "event"
    }
  ],
  "bytecode": "0x6060604052341561000f57600080fd5b61039b8061001e6000396000f300606060405260043610610062576000357c0100000000000000000000000000000000000000000000000000000000900463ffffffff168063bca9a5c51461009b578063cdd1b447146100d2578063dd2c5c72146100fb578063e2c41dbc14610148575b7f1a07f76ee25d689f09f51951e5b4594bb2e440b7935111a41ba06afeb50ff014346040518082815260200191505060405180910390a1005b34156100a657600080fd5b6100bc600480803590602001909190505061016a565b6040518082815260200191505060405180910390f35b34156100dd57600080fd5b6100e56101f7565b6040518082815260200191505060405180910390f35b341561010657600080fd5b610132600480803573ffffffffffffffffffffffffffffffffffffffff16906020019091905050610200565b6040518082815260200191505060405180910390f35b6101506102ac565b604051808215151515815260200191505060405180910390f35b61017261033f565b600160008381526020019081526020016000206040805190810160405290816000820160009054906101000a900473ffffffffffffffffffffffffffffffffffffffff1673ffffffffffffffffffffffffffffffffffffffff1673ffffffffffffffffffffffffffffffffffffffff1681526020016001820154815250509050919050565b60008054905090565b600080600081548092919060010191905055905060408051908101604052808373ffffffffffffffffffffffffffffffffffffffff16815260200160008152506001600083815260200190815260200160002060008201518160000160006101000a81548173ffffffffffffffffffffffffffffffffffffffff021916908373ffffffffffffffffffffffffffffffffffffffff16021790555060208201518160010155905050919050565b60007f5f0e5863a4065968a9a18554ebb203599c3a37ce15e0ef324300e5d76729522633343073ffffffffffffffffffffffffffffffffffffffff1631604051808473ffffffffffffffffffffffffffffffffffffffff1673ffffffffffffffffffffffffffffffffffffffff168152602001838152602001828152602001935050505060405180910390a16001905090565b6040805190810160405280600073ffffffffffffffffffffffffffffffffffffffff1681526020016000815250905600a165627a7a72305820f6a22b9f07c33f9d4613690f8adaadf4ed5af37cc407d2ca70fa679081763f370029",
  "source": "pragma solidity ^0.4.18;\r\n\r\n\r\ncontract SalaryMan {\r\n\r\n    struct Employee {\r\n        address addr;\r\n        uint256 totalAmount;\r\n\r\n    }\r\n\r\n    event PaymentReceived(uint value);\r\n\r\n    uint numEmployees;\r\n    mapping(uint=>Employee) employees;\r\n\r\n    function newEmployee(address adr) public returns (uint employeeID) {\r\n        employeeID = numEmployees++;\r\n        employees[employeeID] = Employee(adr,0);\r\n\r\n    }\r\n\r\n    function getNumEmployees() public view returns (uint)\r\n    {\r\n        return numEmployees;\r\n    }\r\n\r\n    function getEmployee(uint empID) public returns (Employee person) {\r\n        person = employees[empID];\r\n    }\r\n\r\n    function depositFunds() public payable returns(bool success) {\r\n    LogDep(msg.sender, msg.value, this.balance);\r\n    return true;\r\n  }\r\n  event LogDep (address sender,    uint amount, uint balance);\r\n\r\n    function() public payable {\r\n      PaymentReceived(msg.value);\r\n\r\n    }\r\n}\r\n",
  "sourcePath": "C:\\Projects\\myfirstproject\\contracts\\SalaryMan.sol",
  "compiler": {
    "name": "solc",
    "version": "0.4.18+commit.9cf6e910.Emscripten.clang"
  },
  "schemaVersion": "1.0.1",
  "updatedAt": "2018-01-21T22:41:43.365Z"
}