{
  "contractName": "SalaryMan",
  "abi": [
    {
      "constant": true,
      "inputs": [
        {
          "name": "_address",
          "type": "address"
        }
      ],
      "name": "getEmployee",
      "outputs": [
        {
          "name": "",
          "type": "address"
        },
        {
          "name": "",
          "type": "bytes16"
        },
        {
          "name": "",
          "type": "bytes16"
        },
        {
          "name": "",
          "type": "uint256"
        }
      ],
      "payable": false,
      "stateMutability": "view",
      "type": "function"
    },
    {
      "constant": true,
      "inputs": [],
      "name": "getEmployees",
      "outputs": [
        {
          "name": "",
          "type": "address[]"
        }
      ],
      "payable": false,
      "stateMutability": "view",
      "type": "function"
    },
    {
      "constant": true,
      "inputs": [
        {
          "name": "",
          "type": "uint256"
        }
      ],
      "name": "employeeAccts",
      "outputs": [
        {
          "name": "",
          "type": "address"
        }
      ],
      "payable": false,
      "stateMutability": "view",
      "type": "function"
    },
    {
      "constant": true,
      "inputs": [],
      "name": "countEmployees",
      "outputs": [
        {
          "name": "",
          "type": "uint256"
        }
      ],
      "payable": false,
      "stateMutability": "view",
      "type": "function"
    },
    {
      "constant": false,
      "inputs": [
        {
          "name": "_address",
          "type": "address"
        },
        {
          "name": "_fName",
          "type": "bytes16"
        },
        {
          "name": "_lName",
          "type": "bytes16"
        }
      ],
      "name": "setEmployee",
      "outputs": [
        {
          "name": "",
          "type": "uint256"
        }
      ],
      "payable": false,
      "stateMutability": "nonpayable",
      "type": "function"
    },
    {
      "payable": true,
      "stateMutability": "payable",
      "type": "fallback"
    },
    {
      "anonymous": false,
      "inputs": [
        {
          "indexed": false,
          "name": "fName",
          "type": "bytes16"
        },
        {
          "indexed": false,
          "name": "lName",
          "type": "bytes16"
        },
        {
          "indexed": false,
          "name": "totalAmount",
          "type": "uint256"
        },
        {
          "indexed": false,
          "name": "adr",
          "type": "address"
        }
      ],
      "name": "employeeInfo",
      "type": "event"
    },
    {
      "anonymous": false,
      "inputs": [
        {
          "indexed": false,
          "name": "amount",
          "type": "uint256"
        }
      ],
      "name": "PaymentRecived",
      "type": "event"
    }
  ],
  "bytecode": "0x6060604052336000806101000a81548173ffffffffffffffffffffffffffffffffffffffff021916908373ffffffffffffffffffffffffffffffffffffffff1602179055506107d4806100536000396000f30060606040526004361061006d576000357c0100000000000000000000000000000000000000000000000000000000900463ffffffff16806332648e09146100a65780634abefa36146101805780634f025396146101ea578063988c0bce1461024d578063a684a8e614610276575b7ff2d2503dd4c540bd06e66b7fce616abe2d2d5764d68a83dcfb67ea17ab07c54c346040518082815260200191505060405180910390a1005b34156100b157600080fd5b6100dd600480803573ffffffffffffffffffffffffffffffffffffffff169060200190919050506102fb565b604051808573ffffffffffffffffffffffffffffffffffffffff1673ffffffffffffffffffffffffffffffffffffffff168152602001846fffffffffffffffffffffffffffffffff19166fffffffffffffffffffffffffffffffff19168152602001836fffffffffffffffffffffffffffffffff19166fffffffffffffffffffffffffffffffff1916815260200182815260200194505050505060405180910390f35b341561018b57600080fd5b610193610414565b6040518080602001828103825283818151815260200191508051906020019060200280838360005b838110156101d65780820151818401526020810190506101bb565b505050509050019250505060405180910390f35b34156101f557600080fd5b61020b60048080359060200190919050506104a8565b604051808273ffffffffffffffffffffffffffffffffffffffff1673ffffffffffffffffffffffffffffffffffffffff16815260200191505060405180910390f35b341561025857600080fd5b6102606104e7565b6040518082815260200191505060405180910390f35b341561028157600080fd5b6102e5600480803573ffffffffffffffffffffffffffffffffffffffff169060200190919080356fffffffffffffffffffffffffffffffff19169060200190919080356fffffffffffffffffffffffffffffffff19169060200190919050506104f4565b6040518082815260200191505060405180910390f35b60008060008084600160008773ffffffffffffffffffffffffffffffffffffffff1673ffffffffffffffffffffffffffffffffffffffff16815260200190815260200160002060010160009054906101000a900470010000000000000000000000000000000002600160008873ffffffffffffffffffffffffffffffffffffffff1673ffffffffffffffffffffffffffffffffffffffff16815260200190815260200160002060010160109054906101000a900470010000000000000000000000000000000002600160008973ffffffffffffffffffffffffffffffffffffffff1673ffffffffffffffffffffffffffffffffffffffff1681526020019081526020016000206000015493509350935093509193509193565b61041c610743565b600280548060200260200160405190810160405280929190818152602001828054801561049e57602002820191906000526020600020905b8160009054906101000a900473ffffffffffffffffffffffffffffffffffffffff1673ffffffffffffffffffffffffffffffffffffffff1681526020019060010190808311610454575b5050505050905090565b6002818154811015156104b757fe5b90600052602060002090016000915054906101000a900473ffffffffffffffffffffffffffffffffffffffff1681565b6000600280549050905090565b6000806000809054906101000a900473ffffffffffffffffffffffffffffffffffffffff1673ffffffffffffffffffffffffffffffffffffffff163373ffffffffffffffffffffffffffffffffffffffff1614151561055257600080fd5b600160008673ffffffffffffffffffffffffffffffffffffffff1673ffffffffffffffffffffffffffffffffffffffff1681526020019081526020016000209050838160010160006101000a8154816fffffffffffffffffffffffffffffffff021916908370010000000000000000000000000000000090040217905550828160010160106101000a8154816fffffffffffffffffffffffffffffffff0219169083700100000000000000000000000000000000900402179055506001600280548060010182816106239190610757565b9160005260206000209001600088909190916101000a81548173ffffffffffffffffffffffffffffffffffffffff021916908373ffffffffffffffffffffffffffffffffffffffff16021790555050507f5294b61f302bb1206872a9748b645763a5bc95059bdf6fc99a3f2d7b4fda12a4848460008860405180856fffffffffffffffffffffffffffffffff19166fffffffffffffffffffffffffffffffff19168152602001846fffffffffffffffffffffffffffffffff19166fffffffffffffffffffffffffffffffff191681526020018381526020018273ffffffffffffffffffffffffffffffffffffffff1673ffffffffffffffffffffffffffffffffffffffff16815260200194505050505060405180910390a1509392505050565b602060405190810160405280600081525090565b81548183558181151161077e5781836000526020600020918201910161077d9190610783565b5b505050565b6107a591905b808211156107a1576000816000905550600101610789565b5090565b905600a165627a7a72305820c23a7d2990ec67d1201fae85d47b8fb271edb30274b04b98c0387b2333450ea70029",
  "source": "pragma solidity ^0.4.18;\r\n\r\n\r\ncontract Owned {\r\n  address owner;\r\n\r\n  function Owned() public {\r\n    owner = msg.sender;\r\n  }\r\n\r\n  modifier onlyOwner {\r\n    require(msg.sender == owner);\r\n    _;\r\n  }\r\n}\r\n\r\ncontract SalaryMan is Owned {\r\n\r\n    struct Employee {\r\n        uint256 totalAmount;\r\n        bytes16 fName;\r\n        bytes16 lName;\r\n    }\r\n\r\n    mapping (address => Employee) employees;\r\n    address[] public employeeAccts;\r\n\r\n    event employeeInfo(\r\n      bytes16 fName,\r\n      bytes16 lName,\r\n      uint256 totalAmount,\r\n      address adr\r\n      );\r\n\r\n      event PaymentRecived(uint amount);\r\n\r\n\r\n    function() payable\r\n      {\r\n        //employeeInfo(\"test\",\"test\",0,msg.sender);\r\n        PaymentRecived(msg.value);\r\n      }\r\n\r\n    function setEmployee(address _address, bytes16 _fName, bytes16 _lName) public onlyOwner returns(uint)\r\n    {\r\n        var employee = employees[_address];\r\n        employee.fName = _fName;\r\n        employee.lName = _lName;\r\n\r\n        employeeAccts.push(_address) - 1;\r\n        employeeInfo(_fName,_lName,0,_address);\r\n    }\r\n\r\n    function getEmployees() view public returns(address[])\r\n    {\r\n        return employeeAccts;\r\n    }\r\n\r\n    function getEmployee(address _address) public view returns(address, bytes16, bytes16, uint256)\r\n    {\r\n        return (_address, employees[_address].fName, employees[_address].lName, employees[_address].totalAmount);\r\n    }\r\n\r\n    function countEmployees() public view returns(uint)\r\n    {\r\n      return employeeAccts.length;\r\n    }\r\n}\r\n",
  "sourcePath": "C:\\projects\\project\\SalaryMan-BlockChain\\contracts\\SalaryMan.sol",
  "compiler": {
    "name": "solc",
    "version": "0.4.18+commit.9cf6e910.Emscripten.clang"
  },
  "schemaVersion": "1.0.1",
  "updatedAt": "2018-01-26T02:56:42.084Z"
}